:020000040800F2
:10000000A006002089010008910100089301000862
:100010009501000897010008990100080000000000
:100020000000000000000000000000009B0100082C
:100030009D010008000000009F010008A1010008C8
:10004000A3010008A3010008A3010008A301000800
:10005000A3010008A3010008A3010008A3010008F0
:10006000A3010008A3010008A3010008BD020008C5
:10007000DD020008FD0200081D0300083D03000822
:100080005D0300087D030008A3010008A301000828
:10009000A3010008A3010008A3010008A3010008B0
:1000A000A3010008A3010008A3010008A3010008A0
:1000B000A3010008A3010008BD0D0008A30100086A
:1000C000A3010008A3010008A3010008A301000880
:1000D000A3010008C1110008A3010008A301000842
:1000E000A3010008A3010008A301000800F002F822
:1000F00000F03AF80AA090E8000C82448344AAF188
:100100000107DA4501D100F02FF8AFF2090EBAE885
:100110000F0013F0010F18BFFB1A43F0010318473B
:100120009C2E0000BC2E0000103A24BF78C878C175
:10013000FAD8520724BF30C830C144BF04680C60ED
:10014000704700000023002400250026103A28BF35
:1001500078C1FBD8520728BF30C148BF0B60704739
:100160001FB51FBD10B510BD00F058F81146FFF7C0
:10017000F7FF02F073FA00F076F803B4FFF7F2FF2E
:1001800003BC00F07DF8000009488047094800479B
:10019000FEE7FEE7FEE7FEE7FEE7FEE7FEE7FEE737
:1001A000FEE7FEE704480549054A064B7047000094
:1001B0001D0C0008ED000008A0000020A006002093
:1001C000A0020020A00200204FF0000200B513465C
:1001D00094469646203922BFA0E80C50A0E80C5067
:1001E000B1F12001BFF4F7AF090728BFA0E80C5018
:1001F00048BF0CC05DF804EB890028BF40F8042B11
:1002000008BF704748BF20F8022B11F0804F18BF7D
:1002100000F8012B7047704770477047754600F033
:100220002BF8AE4605006946534620F00700854688
:1002300018B020B5FFF7B6FFBDE820404FF000062C
:100240004FF000074FF000084FF0000B21F00701BE
:10025000AC46ACE8C009ACE8C009ACE8C009ACE801
:10026000C0098D46704710B50446AFF300802046A4
:10027000BDE81040FFF781BF0048704740000020F4
:1002800001491820ABBEFEE72600020070470000BF
:10029000002004490880091D0880091D0880091DE7
:1002A000088070473404004010B50021014800F078
:1002B0009FFD10BD000800407047000010B50548C4
:1002C000006800F00F04034844602046FFF7F4FF85
:1002D00010BD0000000002407047000010B5054846
:1002E0000068C0F303142001024948602046FFF76C
:1002F000F3FF10BD000002407047000010B5054834
:100300000068C0F303242002024948602046FFF73A
:10031000F3FF10BD000002407047000010B5054813
:100320000068C0F303342003024948602046FFF709
:10033000F3FF10BD000002407047000010B50548F3
:100340000068C0F303442004024948602046FFF7D8
:10035000F3FF10BD000002407047000010B50548D3
:100360000068C0F303542005024948602046FFF7A7
:10037000F3FF10BD000002407047000010B50548B3
:100380000068C0F303642006024948602046FFF776
:10039000F3FF10BD0000024010B50446642C26D0C7
:1003A0006C2C0ED0722C17D0752C2BD14FF48051A1
:1003B000154800F036FA4FF40061134800F031FAA6
:1003C00020E04FF48051104800F02BFA4FF4006108
:1003D0000D4800F024FA15E04FF480510A4800F06F
:1003E0001EFA4FF40061084800F01BFA0AE04FF4CF
:1003F0008051054800F013FA4FF40061024800F004
:100400000EFA00BF00BF10BD0010014018B5002853
:1004100044D0C0F34211C0F30322214B9B6903F087
:1004200001032BB91E4B9B6943F001031C4CA361D4
:1004300000F48053A3B11B4BDB69009300F01F0352
:1004400001FA03F3009C9C43009400F01F0302FA9E
:1004500003F3009C23430093124C009BE3611DE0D7
:10046000104B5B68009300F01F0301FA03F3009C3C
:100470009C43009400F01F0302FA03F3009C234303
:10048000009307210022009B23EA01630093009B55
:1004900043EA02630093034C009B636018BD0000B5
:1004A000001002400000014001461D48814204D175
:1004B0001C488069C0F3800070471B48814204D10A
:1004C00018488069C0F3C000F6E71848814204D19B
:1004D00014488069C0F30010EEE71548814204D14A
:1004E00010488069C0F34010E6E71248814204D109
:1004F0000C488069C0F38010DEE70F48814204D1C8
:1005000008488069C0F3C010D6E70C48814204D186
:1005100004488069C0F30020CEE70020CCE700004B
:100520000008014000100240000C01400010014092
:100530000014014000180140001C0140002001404F
:100540002DE9F0410246002500260020002300246A
:10055000002791F803C00CF00F0591F803C00CF0D0
:10056000100CBCF1000F03D091F802C04CEA050555
:1005700091F800C0BCF1000F31D0146800202BE0CE
:100580004FF0010C0CFA00F3B1F800C00CEA0306BE
:100590009E4220D183004FF00F0C0CFA03F7BC43AE
:1005A00005FA03FC4CEA040491F803C0BCF1280FDF
:1005B00006D14FF0010C0CFA00FCC2F814C00AE09E
:1005C00091F803C0BCF1480F05D14FF0010C0CFAB3
:1005D00000FCC2F810C0401C0828D1D31460B1F848
:1005E00000C0BCF1FF0F34DD546800202EE000F1A4
:1005F000080C4FF0010808FA0CF3B1F800C00CEA3F
:1006000003069E4221D183004FF00F0C0CFA03F732
:10061000BC4305FA03FC4CEA040491F803C0BCF1A6
:10062000280F05D100F1080C08FA0CF8C2F8148064
:1006300091F803C0BCF1480F07D100F1080C4FF04E
:10064000010808FA0CF8C2F81080401C0828CED324
:100650005460BDE8F0812DE9F04105460C4617468F
:1006600098460F2C02D90020BDE8F0812846FFF7FC
:100670001BFF18B90121284600F02AF8B8F1000F35
:1006800010D1022F05D1E8680121A1408843E8601C
:1006900008E0032F06D127F00107E8680121A140F7
:1006A0000843E860082C01D22E4601E0083C2E1DCC
:1006B0003068A2000F2191408843306048EA8700EB
:1006C000A10088403168084330600120CCE7000079
:1006D000002945D0454A904206D1454A926942F0E8
:1006E0000402434B9A6180E0424A904206D1404A5C
:1006F000926942F008023E4B9A6176E03E4A90428F
:1007000006D13B4A926942F01002394B9A616CE083
:100710003A4A904206D1364A926942F02002344B5E
:100720009A6162E0364A904206D1314A926942F0BB
:1007300040022F4B9A6158E0324A904206D12C4A2F
:10074000926942F080022A4B9A614EE02E4A904212
:100750004BD1274A926942F48072254B9A6144E05A
:10076000224A904206D1224A926922F00402204B8A
:100770009A613AE01F4A904206D11D4A926922F0DE
:1007800008021B4B9A6130E01B4A904206D1184A7E
:10079000926922F01002164B9A6126E0174A9042A5
:1007A00006D1134A926922F02002114B9A611CE093
:1007B000134A904206D10E4A926922F040020C4B35
:1007C0009A6112E00F4A904206D1094A926922F0DA
:1007D0008002074B9A6108E00B4A904205D1044A17
:1007E000926922F48072024B9A61704700080140BE
:1007F00000100240000C01400010014000140140B4
:1008000000180140001C0140002001400246002069
:1008100093680B400BB1012000E00020704741615C
:10082000704701617047000010B500BF094800889B
:100830004FF47A7100FB01F4074800F0D9FB04443F
:100840000020054924310880322001F0B7FE2046FF
:1008500010BD0000040000200008004010B5044650
:1008600021460448FFF7D2FF08B9012010BD00203F
:10087000FCE70000000801400020074908804FF411
:100880004870091D08800020091D08804FF44D7034
:10089000091D088070470000340400404FF4487080
:1008A000064908800020091D08804FF44D70091D7D
:1008B00008800020091D08807047000034040040B3
:1008C0002DE9F84F4FF0000A0024A346A14636E078
:1008D0004FF400512248FFF7A4FF142001F08CFED2
:1008E0004FF400511E48FFF79AFF00BF80211D48BA
:1008F000FFF78CFF0028F9D000F0CAF8641C00BF95
:1009000080211848FFF782FF0128F9D0FFF7CCFCBF
:10091000FFF78AFF8246504602F00CFA009002F080
:100920006FF907460022104B01F0BEFF054601F0AB
:1009300089FF83464946584602F08EF98146012CCC
:10094000C6D1484602F05CF907460022074B01F089
:10095000ABFF054601F076FF83465846BDE8F88FA9
:1009600000100140000C014000004D400000F03F2D
:1009700008B548208DF8030003208DF802004FF4DD
:100980000060ADF8000069460D48FFF7D9FD4FF44F
:100990008050ADF8000069460948FFF7D1FD4FF4DB
:1009A0008070ADF8000069460548FFF7C9FD4FF4B7
:1009B0000040ADF8000069460148FFF7C1FD08BDE1
:1009C0000008014008B510208DF8030003208DF8C1
:1009D00002004FF48050ADF8000069460A48FFF766
:1009E000AFFD4FF480510848FFF71BFF4FF4006044
:1009F000ADF8000069460448FFF7A2FD4FF400611E
:100A00000148FFF70EFF08BD0010014070B500213E
:100A100000230F22C47804B3154C246804F4E06466
:100A2000C4F5E064210AC1F10403CA40447804FA21
:100A300003F184781440214309010E4C0678A15536
:100A4000047804F01F050124AC4005786D11AD0059
:100A500005F1E025C5F8004109E0047804F01F0520
:100A60000124AC40044D0678761145F8264070BD4F
:100A70000CED00E000E400E080E100E00249014309
:100A8000024A1160704700000000FA050CED00E01A
:100A900010B50021054800F0C8FA0020044908807C
:100AA0000121024800F0A4F910BD00000008004038
:100AB0000400002029B1064AD2690243044BDA61DE
:100AC00004E0034AD2698243014BDA6170470000B7
:100AD0000010024029B1064A12690243044B1A6110
:100AE00004E0034A12698243014B1A617047000017
:100AF0000010024029B1064A92690243044B9A61F0
:100B000004E0034A92698243014B9A6170470000F6
:100B10000010024029B1064AD2680243044BDA6051
:100B200004E0034AD2688243014BDA607047000058
:100B30000010024010B500F001F810BD0CB5002007
:100B4000019000903348006840F4803031490860DB
:100B500000BF3048006800F4003000900198401C4D
:100B60000190009818B90198B0F5A06FF1D129480B
:100B7000006800F4003010B10120009001E0002076
:100B800000900098012843D12348006840F01000ED
:100B9000214908600846006820F003000860084604
:100BA000006840F0020008601A484068194948602F
:100BB0000846406848600846406840F480604860E5
:100BC0000846406820F47C1048600846406840F4BD
:100BD000E81048600846006840F08070086000BF78
:100BE0000C48006800F000700028F9D009484068FF
:100BF00020F00300074948600846406840F00200C2
:100C0000486000BF0348406800F00C000828F9D194
:100C10000CBD0000001002400020024010B5134837
:100C2000006840F00100114908600846406810491A
:100C300008400E494860084600680E4908400B49C4
:100C400008600846006820F4802008600846406874
:100C500020F4FE0048604FF41F008860FFF76AFF31
:100C60004FF000600449086010BD00000010024011
:100C70000000FFF8FFFFF6FE08ED00E010B50121CF
:100C80000420FFF737FF01210820FFF733FF012180
:100C90001020FFF72FFF502001F070FCFFF792FEAD
:100CA000FFF766FE01F0BAFB472140F2E73000F0A3
:100CB00001F810BD3D4AD26942F002023B4BDA61B5
:100CC0003B4A126822F07F42394B1A601A4612687A
:100CD00042F03B421A60364A0C32126842F0C002BF
:100CE000334B0C331A60334A126822F0FF02314B47
:100CF0001A601A46126842F0BB021A602D4A0C3282
:100D0000126842F003022B4B0C331A602A4A1080FF
:100D1000121F1180284A0C3A128842F222231A43E9
:100D2000254B0C3B1A80244A143A128847F2700370
:100D30001A43214B143B1A801A46128840F60803C6
:100D40001A431D4B143B1A801A1D128847F2700378
:100D50001A43194B103B1A801A46128840F60803B2
:100D60001A43154B103B1A801A1D128841F21113B9
:100D70001A43114B0C3B1A8080220F4B2C3B1A80DC
:100D80001A46128842F010021A800B4A183A12884A
:100D900042F00102084B183B1A80074A2C3A12888D
:100DA00042F00102044B2C3B1A80704700100240B5
:100DB00000080140000C01402C04004010B5012146
:100DC000064800F018F940B10121044800F00DF880
:100DD00003480088401C0249088010BD00080040FC
:100DE00004000020CA4302827047CA43028270474F
:100DF00021B1028842F00102028004E002884FF62D
:100E0000FE731A400280704710B504466848844259
:100E100008D10121C014FFF77DFE0021E014FFF787
:100E200079FEC4E0B4F1804F08D101210846FFF7F4
:100E300051FE00210120FFF74DFEB8E05D488442DD
:100E400008D101210220FFF745FE00210220FFF713
:100E500041FEACE05848844208D101210420FFF74C
:100E600039FE00210420FFF735FEA0E053488442FC
:100E700008D101210820FFF72DFE00210820FFF7EF
:100E800029FE94E04E48844208D101211020FFF74A
:100E900021FE00211020FFF71DFE88E04948844212
:100EA00008D101212020FFF715FE00212020FFF7A7
:100EB00011FE7CE04448844208D101214014FFF730
:100EC00029FE00216014FFF725FE70E03F488442B0
:100ED00009D10121C804FFF71DFE00214FF40020B5
:100EE000FFF718FE63E03A48844209D10121080562
:100EF000FFF710FE00214FF48010FFF70BFE56E0C5
:100F00003448844209D101214805FFF703FE00213E
:100F10004FF40010FFF7FEFD49E02F48844208D14E
:100F200001214020FFF7D6FD00214020FFF7D2FD30
:100F30003DE02A48844208D101218020FFF7CAFD04
:100F400000218020FFF7C6FD31E02548844208D10A
:100F500001218015FFF7BEFD0021A015FFF7BAFDA6
:100F600025E02048844209D101210804FFF7D2FD81
:100F700000214FF48030FFF7CDFD18E01A4884427D
:100F800009D101214804FFF7C5FD00214FF40030CD
:100F9000FFF7C0FD0BE01548844208D10121880409
:100FA000FFF7B8FD00214FF48020FFF7B3FD10BD1F
:100FB000002C01400004004000080040000C0040EC
:100FC000001000400014004000340140004C01407B
:100FD000005001400054014000180040001C004037
:100FE0000020004000400140004401400048014012
:100FF0000146888C704730B502460020002300244B
:10100000158A05EA0103958905EA010413B10CB1BB
:10101000012000E0002030BD1AB183890B43838199
:1010200002E083898B43838170478184704700008D
:10103000002202881D4B98420ED01D4B98420BD0C7
:10104000B0F1804F08D01B4B984205D01A4B984204
:1010500002D01A4B984204D14FF68F731A404B8836
:101060001A43174B984207D0164B984204D04FF6BC
:10107000FF431A40CB881A4302808B8883850B88F4
:1010800003850A4B98420BD0094B984208D00E4B6F
:10109000984205D00D4B984202D00D4B984201D199
:1010A0000B7A03860123838270470000002C0140E5
:1010B000003401400004004000080040000C0040E3
:1010C0000010004000140040004001400044014076
:1010D0000048014010B504464FF4487007490880A5
:1010E0000020091D0880091D08804FF44D70091D5E
:1010F0000880A0B201F062FA10BD00003404004084
:1011000010B504464FF44870074908800020091DB7
:101110000880091D08804FF44D70091D0880A0B299
:1011200001F04CFA10BD00003404004010B5044634
:101130000020084908804FF44870091D08804FF4CA
:101140004D70091D08800020091D0880A0B201F023
:1011500035FA10BD3404004070B504460D46034A0C
:101160002946204600F080F870BD00004C2F000892
:1011700008B5024800F089FC009008BD4C2F00081B
:1011800008B5024800F084FC009008BD4C2F000810
:1011900010B5024800F0C4FC10BD00004C2F000840
:1011A00008B5024800F0C0FC009008BD4C2F0008B4
:1011B00010B5024800F022FD10BD00004C2F0008C1
:1011C00010B5024800F01EFD10BD00004C2F0008B5
:1011D00010B504460249204600F04CFE10BD000048
:1011E0004C2F000810B504460249204600F0D8FEF6
:1011F00010BD00004C2F000870B504460D46034A90
:101200002946204600F0B4FF70BD00004C2F0008B6
:1012100070B504460D46034A2946204600F0F9FF02
:1012200070BD00004C2F000810B50446024920464E
:1012300001F033F810BD00004C2F000870B50446D3
:101240000D461646034B32462946204601F073F8F8
:1012500070BD00004C2F000810B5024801F0A0F846
:1012600010BD00004C2F00082DE9FE4F07460D462B
:101270001446206BC07A00F0020018B94FF0FF301E
:10128000BDE8FE8F0020009080468346F8B21538F6
:1012900006287CD2DFE800F0A3DC032C4E6CA5B15D
:1012A000606B90F8210010B16FF00100E8E70120B9
:1012B000616B81F82100616B81F820006068808992
:1012C00040F081006168888110E0606B90F8200038
:1012D00060B16068808920F08000616888810020AA
:1012E000616B81F82000616B81F821000020C7E765
:1012F0006068808920F0C00061688881A06A88B138
:10130000606B90F8210068B16068808A20F08000EE
:1013100061688882A16A0868016821F001010160A2
:1013200000BF00BF0020616B81F82000616B81F875
:101330002100A5E76068808920F02000616888812D
:10134000E06A80B1206B407968B16068808A20F0E3
:10135000400061688882E16A0868016821F0010143
:10136000016000BF00BF0021206B4171002087E7B2
:101370006068808920F0E00061688881A06A98B187
:10138000606B90F8210078B16068808A00E0C2E06C
:1013900020F0800061688882A16A0868016821F0F5
:1013A0000101016000BF00BFE06A80B1206B40799D
:1013B00068B16068808A20F0400061688882E16AD4
:1013C0000868016821F00101016000BF00BF002131
:1013D000206B41710020616B81F8210050E7E068CB
:1013E00010B94FF0FF304BE7BDB1206BC068062845
:1013F00006D0E2689188032310680222FFF72BF9D8
:10140000206BC07A40F00800216BC8726068808948
:1014100040F008006168888118E06068808920F0E9
:10142000080061688881206BC07A20F00800216B79
:10143000C872206BC068062808D0E06830B1E26846
:101440009188002310681A46FFF705F9002017E776
:10145000206910B94FF0FF3012E7E5B3206BC06888
:1014600006280AD0206BC068042806D0226991881B
:10147000002310680122FFF7EEF8206BC07A40F0DD
:101480001000216BC8726068808A40F001006168BA
:1014900088826068008A40F0400061680882606865
:1014A000808940F0100061688881206B407918B114
:1014B000E06A08B1012000E0002028B96068808956
:1014C00040F02000616888816068808940F00400F5
:1014D000616888811DE0FFE76068808920F0040072
:1014E00061688881206BC07A20F01000216BC8727F
:1014F000206BC06806280CD0206BC068042808D078
:10150000206930B122699188002310681A46FFF7DC
:10151000A2F80020B4E600BF00BF206B407918B9E4
:10152000606B90F8210010B16FF00100A8E66068D0
:10153000808900F0080038B16068008800F0400041
:1015400010B96FF001009BE6F8B2152872D2DFE8FF
:1015500000F0C90B0E1D20252AC9C9C9C9C9C9C9AE
:10156000C9C9373B697EB80001200290BDE02078F0
:10157000C0F3400020B148F4006848F4807802E0ED
:101580006FF006007CE602200290AEE06FF00600ED
:1015900076E64BF0080B04200290A6E04BF0020B1D
:1015A00005200290A1E02078C0F3401010B14BF06C
:1015B000200B02E06FF0060062E60620029094E045
:1015C000616B4D8300205BE6206BC068052824D149
:1015D00015B36068808A40F0040061688882D4F89E
:1015E00008A0FE48B0FBFAFA012605E00AFB06F067
:1015F000A84200D902E0761CFF2EF7D900BFB6F54D
:10160000807F02D14FF0FF303AE66068008B20F017
:10161000FF0030436168088302E04FF0FF302FE69F
:1016200000202DE6206BC06806280BD1FF2D02D9C3
:10163000C01F25E656E06068008BC0B22843616891
:10164000088302E04FF0FF301AE6002018E6206B16
:10165000C068062830D1D4F808A0E048B0FBFAFAF8
:10166000012619E00AFB06F040006421484305EB1F
:10167000051101EB4101B0EB410F0CD20AFB06F062
:1016800040006421484305EB051101EB4511B0EB27
:10169000410F00D902E0761C402EE3D300BF402E5C
:1016A00002D14FF0FF30EBE56068008B20F0FF00C7
:1016B00030436168088302E04FF0FF30E0E500202E
:1016C000DEE5206BC068062807D14DB16068808ACE
:1016D00040F010006168888202E04FF0FF30CFE5F3
:1016E0000020CDE56FF00300CAE500BF07F4E0601D
:1016F00060B1B0F5807F13D0B0F5E06F1DD107F475
:10170000405010B96FF00800BAE519E007F44050F6
:1017100028B148F02008009840F4805000900FE075
:1017200007F4405010B16FF00800A9E548F0200818
:10173000009840F48050009002E06FF008009FE5B0
:1017400000BF07F4405030B1B0F5805F04D0B0F571
:10175000005F0BD105E00CE0009840F48060009041
:1017600007E0009840F4C060009002E06FF00900CC
:1017700086E500BF07F4404048B1B0F5804F07D080
:10178000B0F5004F07D0B0F5404F0AD106E00BE0AE
:1017900048F4005808E048F4405805E048F4805800
:1017A00002E06FF00A006BE500BF07F4403048B17B
:1017B000B0F5803F09D0B0F5003F13D0B0F5403F01
:1017C0002ED11CE04FF000092DE02078C0F3C010AE
:1017D00020B14FF480394BF4807B02E06FF00B00B6
:1017E0004EE520E02088C0F3002020B14FF40039FE
:1017F0004BF4C06B02E06FF00B0041E513E0207882
:10180000C0F3C01040B12088C0F3002020B14FF4D5
:1018100040394BF4E06B02E06FF00B0030E502E082
:101820006FF00B002CE500BF029802281DD107F4D1
:10183000802018B1B0F5802F04D100E005E048F415
:10184000806802E06FF00C001AE500BF07F400208A
:1018500018B1B0F5002F04D100E005E048F400789D
:1018600002E06FF00D000BE500BFA06800EBC001C7
:1018700001EB0010A900B0FBF1F06421B0FBF1F125
:10188000A06800EBC00202EB0010AA00B0FBF2F06F
:10189000A26802EBC20303EB0212AB00B2FBF3F24D
:1018A0006423B2FBF3F202EBC20303EB0212A0EBE0
:1018B0008200322202EB00106422B0FBF2FA61F3E4
:1018C0001F1AA06800011FFA8AF1B0FBF1F00009AD
:1018D000019064210198484305EB051101EB41019A
:1018E000B0EB410F09D264210198484305EB051183
:1018F00001EB4511B0EB410F02D86FF00700BFE4D8
:101900006068808920F40050616888816168A1F86E
:1019100008A00298216BC860206BC0F81090206B63
:10192000C068062809D1E06830B1E26891880323D5
:1019300010680222FEF78FFE18E0206BC07A00F0DC
:10194000080048B1E06880B1E2689188032310681C
:101950000222FEF780FE08E0E06830B1E26891887C
:10196000002310681A46FEF776FE00BF00BF206B0A
:10197000C068042802D006280BD100E000BF20690F
:1019800030B122699188002310681A46FEF763FE81
:1019900018E0206BC07A00F0100048B1206980B1D7
:1019A00022699188002310680122FEF754FE08E0A6
:1019B000206930B122699188002310681A46FEF729
:1019C0004AFE00BF00BF6069D0B1206BC06802282A
:1019D00002D006280BD100BF626901E000CA9A3B21
:1019E0009188032310680222FEF735FE07E0626942
:1019F0009188002310681A46FEF72DFE00BF00BF35
:101A0000A069A0B1B9F5803F02D0B9F5403F07D138
:101A1000A2699188032310680222FEF71CFE06E0EB
:101A2000A2699188002310681A46FEF714FEE06947
:101A3000A0B1B9F5003F02D0B9F5403F07D1E26946
:101A40009188002310680122FEF705FE06E0E26996
:101A50009188002310680122FEF7FDFD009861685F
:101A600088816168A1F810806168A1F814B060688D
:101A7000808940F4005061688881206BC07A40F012
:101A80000400216BC872002010E40146086870470A
:101A90000CB50146019820F001000190086B006927
:101AA00020B1086B0069B0F5803F0ED1C86960B104
:101AB000CB6998881A689368C34003F0010323B97F
:101AC000019820F00100401C0190019820F00200D4
:101AD0000190019820F008000190019820F0040086
:101AE00001900198009A60F3000200920198420868
:101AF000009862F34100009001988208009862F318
:101B0000820000900198C208009862F3C300009020
:101B100001980209009862F31F10009000980CBD14
:101B20000146486B006970470CB50146486B90F858
:101B3000210028B1019820F00100401C019008E02C
:101B400048680088012222EA9012019862F300009E
:101B50000190086B4279019862F341000190086B93
:101B60008279019862F382000190086BC279019832
:101B700062F3C3000190086B027A019862F30410CB
:101B80000190086B427A019862F345100190086B4E
:101B9000827A019862F3861001900198009A60F3AE
:101BA0000002009201984208009862F34100009000
:101BB00001988208009862F3820000900198C208A0
:101BC000009862F3C300009001980209009862F344
:101BD0000410009001984209009862F345100090AB
:101BE00001988209009862F3861000900198C2095A
:101BF000009862F3DF10009000980CBD0146486B1E
:101C0000406970472DE9F041044660680688002766
:101C10000025A84606F02000616889890840002850
:101C200060D0206B407938B9606880880121206BD2
:101C3000C17145F0200555E0206BC068022806D12F
:101C4000606BC069012802D16068808802E060682A
:101C5000B0F80480606B8268501C636B986082F8F7
:101C600000806068878907F4806050B907F480506D
:101C700038B14FEA2821606B8268501C636B986012
:101C80001170606B0069401C616B0861606B0069DA
:101C9000616B0968884225D16068808920F0100056
:101CA000616888810021206B4171206BC068022827
:101CB00016D1606BC7690020616BC861012F04D029
:101CC000022F05D0032F09D105E045F0010506E0FC
:101CD00045F0020503E045F0040500E000BF01E027
:101CE00045F0020506F0100061688989084018B1C6
:101CF0006068808845F0400506F080006168898949
:101D00000840002863D0606B90F8200030B1606814
:101D1000808940F001006168888158E0606B40680C
:101D2000616B4969884222D0206BC068022807D1C4
:101D3000606BC069022803D1606BB0F81A8016E0AE
:101D4000606BC168481C626BD06091F8008060686D
:101D5000878907F4806050B907F4805038B1606B10
:101D6000C168481C626BD060087848EA0028606B44
:101D70004069401C616B48616068A0F80480606B3A
:101D80004068616B4969884221D16068808920F090
:101D90008000616888816068808940F040006168E7
:101DA00088810020616B81F82100206BC0680228C7
:101DB0000BD1606BC069012809D1206BC07A00F09B
:101DC000100020B945F0010501E045F0010506F0DD
:101DD000400061688989084038B16068808920F0D6
:101DE00040006168888145F0080506F0080030B1C0
:101DF000606880880121206BC17145F0200506F0E4
:101E0000020030B1606880880121206B417245F486
:101E1000807506F0010030B1606880880121206B78
:101E2000817245F4007506F4807050B160680088D6
:101E300020F48070616808800121206B017245F0F8
:101E4000800506F4007038B16068008820F40070E6
:101E50006168088045F4806525B1206B006808B191
:101E6000012000E0002018B1206B01682846884757
:101E7000BDE8F08170B505460C46206BC07A00F0D5
:101E8000010008B1002070BD206B05600020216BAF
:101E900008710021206B4171206B8171206BC17131
:101EA000206B0172206B4172206B81720020216BCC
:101EB000C860616B81F821002421606BFEF784F912
:101EC000608CFEF7A3FAE06820B1E16808680121A0
:101ED000FEF7FEFB206920B1216908680121FEF7A9
:101EE000F7FB606920B1616908680121FEF7F0FB2A
:101EF000A06920B1A16908680121FEF7E9FBE0694A
:101F000020B1E16908680121FEF7E2FB0120216BA5
:101F1000C8720020B7E700001D49884205D11D495D
:101F2000C96841F480411B4AD1601B49884205D1F0
:101F30001849096941F40031164A1161174988426C
:101F400005D11449096941F48021124A116100BF89
:101F500000BF00BF00BF0E49884205D10D49C968C6
:101F600021F480410B4AD1600B49884205D10949CF
:101F7000096921F40031074A11610849884205D1F5
:101F80000449096921F48021024A11617047000067
:101F9000003801400010024000440040004800406A
:101FA00070B505460C4625B1012D5BD0022D7DD1C3
:101FB0005BE06068FFF7B0FF94F92400002817DBAE
:101FC00000F01F0201219140634A430942F82310A7
:101FD00000BF00BF00BFBFF34F8F00BF00BF00BFF7
:101FE00000BF00BF00BFBFF36F8F00BF00BF00BFC7
:101FF00000BF5A496068884205D15948806920F479
:1020000080405749886157496068884205D15448E3
:10201000C06920F400305249C86153496068884261
:1020200005D14F48C06920F480204D49C861002087
:10203000216B08710021206B4171206B8171206B35
:10204000C171206B0172206B4172206B8172002084
:10205000616B81F82100206BC07A20F00200216BB7
:10206000C87276E06FF0030070BD206BC07A00F09C
:10207000010010B94FF0FF30F6E7206BC07A00F096
:10208000020008B10020EFE70020216B0871002159
:10209000206B4171206B8171206BC171206B0172CB
:1020A000206B4172206B8172002000E04EE0616B7A
:1020B00081F82100616B4883616BC861616B81F8B5
:1020C0002000216BC860216B08610320216BC8725E
:1020D00022496068884205D12148806940F48040E7
:1020E0001F4988611F496068884205D11C48C06942
:1020F00040F400301A49C8611B496068884205D124
:102100001748C06940F480201549C86194F924003B
:10211000002807DB00F01F0201219140134A430908
:1021200042F8231000BF94F92400002809DB00F0D6
:102130001F02012191404209920002F1E022C2F8FF
:10214000001100BF6068FFF7E7FE02E06FF00300D8
:102150008AE700BF002087E780E100E00038014007
:1021600000100240004400400048004080E200E0CF
:102170002DE9F04105460E46144605B11EB96FF033
:102180000400BDE8F081206BC07A00F0040010B9B3
:102190004FF0FF30F5E7206B4079012801D1C01ED8
:1021A000EFE76068808920F0200061688881606BBB
:1021B00006600021206B0172206B4172206BC1719F
:1021C000206B8172606B85600020616B086101216A
:1021D000206B41716068808940F0300061688881BF
:1021E000206BC068022812D1606BC06978B90220E8
:1021F000616BC861616B01F11A002246314600F043
:1022000008F80746B81C10B96FF00100B9E70020C4
:10221000B7E72DE9F04105460E46144605B11EB953
:102220006FF00400BDE8F081206BC07A00F004007C
:1022300010B94FF0FF30F5E7606B90F8210010B156
:102240006FF00100EEE70120616B81F82100606B07
:10225000C560606B46600020616B4861206BC068A0
:10226000022812D1606BC06978B90120616BC86126
:10227000616B01F1180022463146FFF779FF0746EE
:10228000B81C10B96FF00100CCE76068808940F09D
:102290008000616888810020C4E770B5044634B1CD
:1022A000012C22D0022C3FD0032C3CD13DE0086B06
:1022B000006920B1086B0069B0F5003F11D1886951
:1022C00090B18D69AA88012328681BB1012595402A
:1022D000056104E002F110050126AE40066100BF71
:1022E00002E04FF0FF3070BD22E0086B006920B1C2
:1022F000086B0069B0F5003F11D1886990B18D6914
:10230000AA88002328681BB101259540056104E0D7
:1023100002F110050126AE40066100BF02E04FF059
:10232000FF30E0E704E000BF00BF4FF0FF30DAE726
:1023300000BF0020D7E72DE9F04180460E46174642
:102340001C46B8F1000F01D006B11FB96FF00400B0
:10235000BDE8F081206BC07A00F0040010B94FF0A6
:10236000FF30F5E7206BC068022814D10320616BB1
:10237000C861224639463046FFF7FAFE05460DB1E0
:102380002846E5E7224639464046FFF742FF054624
:1023900025B12846DCE74FF0FF30D9E70020D7E72A
:1023A00010B50446E06830B1E268918800231068F7
:1023B0001A46FEF750F9206930B12269918800234E
:1023C00010681A46FEF747F9606930B16269918872
:1023D000002310681A46FEF73EF9A06930B1A269E1
:1023E0009188002310681A46FEF735F9E06930B18C
:1023F000E2699188002310681A46FEF72CF9208CB8
:10240000FEF704F80020216BC87210BD08B5024821
:102410000068009008BD0000482F00081FB54FF469
:102420000050ADF8000010208DF8030003208DF857
:10243000020069461B48FEF783F88020ADF80000D3
:1024400004208DF8030003208DF802006946164829
:10245000FEF776F801210420FEF72CFB4FF08040B8
:10246000FEF7D2FC40F2E730ADF808004720ADF8A7
:1024700004000020ADF80A00ADF8060001A90B48E1
:10248000FEF7D6FD01210948FEF7ACFC01221146FA
:102490000648FEF7C1FD00F0CDF800210348FEF725
:1024A000A7FC1FBD00100140000C014000080040C7
:1024B00010B504464FF44870074908800020091DF4
:1024C0000880091D08804FF44D70091D0880A0B2D6
:1024D00000F074F810BD00003404004010B504464C
:1024E0000020084908804FF44870091D08804FF407
:1024F0004D70091D08800020091D0880A0B200F061
:102500005DF810BD34040040642809D06C2805D063
:10251000722807D0752807D1642006E0722004E0F5
:10252000752002E06C2000E000BF00BF7047642807
:1025300009D06C2805D0722807D0752807D16C20E7
:1025400006E0642004E0722002E0752000E000BF95
:1025500000BF7047642809D06C2805D0722807D0C6
:10256000752807D1722006E0752004E06C2002E097
:10257000642000E000BF00BF704700004FF0E02182
:10258000096921F004014FF0E0221161C21700EB4C
:102590005272C2F3C702074B1A701946097801EB51
:1025A0004102C2EBC1114FF6FF7202EAC101024AB9
:1025B00011807047000000200200002001460D4AF3
:1025C00012884A434FF0E0235A6100229A610122A7
:1025D0001A6100BF4FF0E022106900F001021AB149
:1025E00000F48032002AF5D000224FF0E0231A6177
:1025F0009A6170470200002001460D4A12784A4352
:102600004FF0E0235A6100229A6101221A6100BF53
:102610004FF0E022106900F001021AB100F480329C
:10262000002AF5D000224FF0E0231A619A6170472A
:102630000000002008B54FF4A060FEF71FFA1E202E
:102640008DF8000000208DF801008DF802000120B7
:102650008DF803006846FEF7D9F908BDFEF70EFBBA
:102660004FF49660FFF7AAFF7524E8E02046FDF7D7
:1026700093FEFEF713F94FF49670FFF79FFF752C4A
:102680001BD14FF48070FEF7E9F8B0B93220FFF7A4
:1026900095FFFDF7FDFD4FF47A70FFF78FFF40F2D5
:1026A0002620FEF72DFDFDF7F3FD4FF49670FFF7A2
:1026B00085FF2046FFF73BFF0446642C1BD14FF4F7
:1026C0000040FEF7CBF8B0B93220FFF777FFFDF7F7
:1026D000DFFD4FF47A70FFF771FF40F22620FEF71E
:1026E00025FDFDF7D5FD4FF49670FFF767FF2046F7
:1026F000FFF730FF0446FEF7E3F8804650494046B6
:1027000000F02CFB01D2012700E00027012F7AD135
:10271000752C01D0642C20D14FF48070FEF79EF808
:10272000002870D04FF40040FEF798F800286AD0D7
:10273000FEF7A2F84FF49670FFF740FF40F24C40CE
:10274000FEF7C8FCFDF7A4FD4FF49670FFF736FFC7
:102750002046FFF7D9FE044655E06C2C53D14FF4C8
:102760008070FEF77BF8B8B91420FFF727FFFDF75C
:102770008FFD4FF47A70FFF721FF40F22620FEF71D
:10278000BFFCFDF785FD4FF49670FFF717FF20465D
:10279000FFF7CDFE044636E04FF40040FEF75EF84A
:1027A000B8B91420FFF70AFFFDF772FD4FF47A70F5
:1027B000FFF704FF40F22620FEF7B8FCFDF768FDA6
:1027C0004FF49670FFF7FAFE2046FFF7C3FE04466B
:1027D00019E0FDF75DFD4FF47A70FFF7EFFE4FF45F
:1027E0007A70FFF7EBFE4FF47A70FFF7E7FE4FF4D5
:1027F0007A70FFF7E3FE4FF47A70FFF7DFFE4FF4D5
:102800007A70FFF7DBFE752C01D0642C16D14FF4E3
:102810000060FEF723F805464FF48050FEF71EF8DF
:10282000064625B11EB95020FFF758FE05E025B930
:10283000012E02D15020FFF73BFE00BF00BF15E77D
:102840000000204121F00042A2F16052B2F5801F49
:1028500001F0004328BFD2F17F6C0BD95FEA001C66
:1028600043EAC20242EB507018BF704728BF20F005
:1028700001007047B2F5801FBCBF184670474FEA91
:10288000410C1CF5001F02D2084600F0E1BA70B5F9
:1028900000F062F900000089FFF7F6BF4FF000403A
:1028A000A0F58000704700002DE9C04130B4DFF88A
:1028B000A0C23CEA111418BF3CEA131400F0EC80EB
:1028C00081EA03051CEA111444EAD57418BF1CEA16
:1028D000131500F0C780A4EB05044FF0004545EA4E
:1028E000C12145EAC32341EA505143EA525304F15E
:1028F0007F74994204F500344FEAC0204FEAC222A7
:1029000008BF904200F09C804FEA13650FF240161A
:10291000765D4FEA134506FB05F7C7F1807706FBA6
:1029200007F74FEAD737A7FB03687642C8F5803828
:10293000A7FB06CE38BFA8F1010807FB08E64FF059
:10294000000EA6FB028CE6FB03CEDCF1000CCEF100
:10295000004E38BFAEF1010EA6FB0C584FF0000739
:102960004FF00005E6FB0E87A1FB08C6A0FB07CED3
:1029700016EB0E0645F10005E1FB076515F1E04E8B
:102980007EBFA4F580345FEA46066D4116F18007EC
:1029900045F100054FEA17274FEA066647EA056743
:1029A000A6F1DE46B6F1805F4FEA15251FD93846FD
:1029B00024F0010C05EBC471BCF1FE6F01EB0C11AE
:1029C00002D8F0BCBDE8008124425CBF01F5801E46
:1029D0009EEAC47F02D4F0BCBDE80081244238D412
:1029E000F0BCA1F1C041BDE8004100F003B94FEADD
:1029F000D22242EA43524FEAD323A7FB02864FEA90
:102A0000D02040EA415007FB03661EEA0E0F4FEA52
:102A1000D12105FB026658BFA6EB0056B6EB005667
:102A20004FEA520E4EEAC37E18EB0E0E56EB530ED3
:102A3000BDD518EB02085E417F1C55F10005B6E7D5
:102A40004FF480154FF000074FF000064FF00008DC
:102A5000ADE7F0BC4FF0000001F1C04101F00041D2
:102A6000BDE8008111EA0C1F0CEA131500D00CE040
:102A700013EA0C1F00F025804FF00000F0BC81EA43
:102A8000030101F00041BDE80081F0BCBDE8004158
:102A900081EA030100F0AEB8F0BCBDE8004170B5BA
:102AA00000F05AF8097EFC3E00F007B881EA030105
:102AB0004FF0000001F00041704781EA030100F08F
:102AC00099B8F0BCBDE800414FF0000021497047C3
:102AD000FFFDFBF9F7F5F4F2F0EEEDEBE9E8E6E4E3
:102AE000E3E1E0DEDDDBDAD8D7D5D4D3D1D0CFCD6A
:102AF000CCCBCAC8C7C6C5C4C2C1C0BFBEBDBCBBA3
:102B0000BAB9B8B7B6B5B4B3B2B1B0AFAEADACAB9D
:102B1000AAA9A8A8A7A6A5A4A3A3A2A1A09F9F9E77
:102B20009D9C9C9B9A999998979796959594939329
:102B3000929191908F8F8E8E8D8C8C8B8B8A8989C0
:102B40008888878786858584848383828281818043
:102B50000000FF070000F87F0EF1020E2EF0030EBA
:102B60005EF8046B364205D4012A43EB030515F5E4
:102B7000001F12D8012841EB010C1CF5001F0CD8D6
:102B80000ED14FEAD17C15F5001F0CEB4C0C0CF16B
:102B9000020C08BF4CEBD37C04E04FF0080C01E0C2
:102BA0004FEAD37C0CEB4C0526FA05F606F0070637
:102BB000B6F1040C06D20EEB860CBDE870404CF06A
:102BC000010C6047DFE80CF0090B02024FF00041F6
:102BD0004FF00000A1F5002170BD194610460128F4
:102BE00051EB010418BFD4F5001484BF002001F09C
:102BF000004170BD0808A0F500114FEA310170478F
:102C000043004FEAD30C4FEA3C0C43401FBF400740
:102C10000CF1605113F0FE4F70471CF0006F03D1B0
:102C200000200CF0004170470CF0004343EA507064
:102C300010B540EACC0000F0C5F800BF00000092DB
:102C40004FEA0001FFF7D6BF4FF000414FF0000000
:102C5000A1F500217047000090EA010F48BF81F004
:102C6000004100F10281421A3CBF801A89184FEAE4
:102C7000D0524FF07F4C1CEA410FA2EBD15318BF4A
:102C80009CEA026F00F03B804FF0004C4CEA0020C1
:102C90004CEA012121FA03FC10EB0C0C1ED202F1CC
:102CA000FF325FEA1C2040EBC25038BF70471CF077
:102CB0007F0F4FEA400C18BFBCF17F4F38BF704701
:102CC000C3F12003994008BF20F00100BCF17F4F01
:102CD00038BF7047A0F1C04000F0BAB84FEA3C00DE
:102CE000000A40EBC25028BF1CF0FF0F4FEA400C17
:102CF000E6D018BFBCF17F4F38BF7047EAE79CEAC7
:102D0000026F05D010EA5C0F08BF00F0004070476A
:102D100010B500F057F800BF64FBBE3E401058BF2E
:102D2000C0F14040491058BFC1F140418142EFF32A
:102D300000807047B0FA80F310FA03F2C3F19D03EC
:102D40000AD0D90501EB1220530638BF704700F1B5
:102D5000010008BF20F001007047000050EA010C9C
:102D600000F113801CF5000F58BFBCF5000F01D413
:102D70008842704707D710F5000F58BF11F5000FB4
:102D800015D488427047894270471CF5000F04D55E
:102D9000BCF5000FF7D5814270474FF0807C1CEBEB
:102DA000400F38BF1CEB410F01D28142704710B574
:102DB00000F008F8922449004FF000504FF0805185
:102DC000FFF7ACBF0EF1020E2EF0030E5EF8044BBF
:102DD000244204D44FEA4102B2F17F4F11D84FEAA6
:102DE0004003B3F17F4F0CD80ED14FEAD07CB2F143
:102DF0007F4F0CEB4C0C0CF1020C08BF4CEBD17C60
:102E000004E04FF0080C01E04FEAD17C0CEB4C03DE
:102E100024FA03F404F00704B4F1040C06D20EEB18
:102E2000840CBDE810404CF0010C6047DFE80CF06A
:102E3000070802024FF00040A0F5800010BD0846D0
:102E4000420018BFD2F1807288BF00F0004010BD70
:102E5000FF2141EAD050C0057047000090EA010F01
:102E600048BF81F000413FF5FEAE421A04D882F01F
:102E70000042A0EB020011444FEAD0524FF07F4CC9
:102E80001CEA410FA2EBD15318BF9CEA026F4AD053
:102E90004FF0004C4CEA00204CEA012121FA03FCDF
:102EA000B0EB0C0C0FD412F0FE0F36D05FEA4C00E2
:102EB0001DD5001240EBC25038BF70471CF03F0FC9
:102EC00018BF70470BE0A2F101025FEA1C2040EB43
:102ED000C25038BF70471CF07F0F18BF7047C3F156
:102EE0002003994014BF401E20F001007047800865
:102EF0004FEA122308BF7047B0FA80FCA2EB0C0225
:102F0000CCF1280C60FA0CF093EA122F04BF00EB0E
:102F1000C25070474FEAC3707047130A5FEADC1073
:102F200008BF7047F6E79CEA026F04D010EA5C0F16
:102F300008BF0020704710B5FFF744FF40DFF63EA2
:102F400081F00040704700000302030239060000D0
:102F50000038014000A24A04000000000000000008
:102F6000000000000000000000000000220022001D
:102F70002500000000000000000000000800002004
:102F80001C0000200D24000871110008D111000858
:102F900059120008E511000811120008F911000883
:102FA0003D120008B11100089111000859110008E4
:102FB000A11100082912000881110008DC2F000867
:102FC000000000200800000028010008E42F00088D
:102FD00008000020980600004401000800000000DE
:042FE00000000000ED
:04000005080000ED02
:00000001FF
